:020000040800F2
:10000000702300209101000857200008C11C00083F
:10001000552000088D0400081D260008000000007F
:10002000000000000000000000000000AD210008FA
:100030008F0400080000000059200008AF210008CC
:10004000AB010008AB010008AB010008AB010008E0
:10005000AB010008AB010008AB010008AB010008D0
:10006000AB010008AB010008AB010008AB010008C0
:10007000AB010008AB010008AB010008AB010008B0
:10008000AB010008AB010008AB010008AB010008A0
:10009000AB010008AB010008AB010008AB01000890
:1000A000AB010008AB010008AB010008AB01000880
:1000B000AB010008AB010008AB010008AB01000870
:1000C000AB010008AB010008AB010008AB01000860
:1000D000AB01000811260008AB010008AB010008C5
:1000E000AB010008AB010008AB01000800F002F80A
:1000F00000F03FF80AA090E8000C82448344AAF183
:100100000107DA4501D100F034F8AFF2090EBAE880
:100110000F0013F0010F18BFFB1A43F0010318473B
:10012000AC350000CC350000103A24BF78C878C147
:10013000FAD8520724BF30C830C144BF04680C60ED
:10014000704700000023002400250026103A28BF35
:1001500078C1FBD8520728BF30C148BF0B60704739
:10016000642900F07580002070471FB51FBD10B5D1
:1001700010BD00F05BF91146FFF7F7FF02F0B2FB8C
:1001800000F079F903B4FFF7F2FF03BC02F09AFB29
:100190000948804709480047FEE7FEE7FEE7FEE71B
:1001A000FEE7FEE7FEE7FEE7FEE7FEE70448054957
:1001B000054A064B704700000F220008ED000008BA
:1001C000701D002070230020701F0020701F002071
:1001D0000FB4044910B503AA029800F0F9F810BC56
:1001E0005DF814FB000000202DE9F0410E460446A6
:1001F000002020622046E168884730B3252805D0DA
:10020000D4E901219047206A401CF2E7E1682046CA
:1002100000278847050018D0A5F14100192802D809
:1002200020354FF400673246294620462760FFF705
:1002300097FF40B1012804D0F61D26F007060836C6
:10024000D8E7361DD6E72846DAE7206ABDE8F08110
:100250002DE9F0410646002410687529314616A59F
:1002600010D0AFF30080002802DA404213A507E067
:1002700031688A0701D512A502E0490704D511A506
:10028000012401E0AFF3008000210A2206F12407D7
:1002900009E0B0FBF2FCB0FBF2F302FB1C003030D3
:1002A00078541846491C0028F3D123462A46304684
:1002B000BDE8F04100F032B8000000002D00000061
:1002C0002B000000200000004FF0000200B5134694
:1002D00094469646203922BFA0E80C50A0E80C5066
:1002E000B1F12001BFF4F7AF090728BFA0E80C5017
:1002F00048BF0CC05DF804EB890028BF40F8042B10
:1003000008BF704748BF20F8022B11F0804F18BF7C
:1003100000F8012B70477047704770472DE9F04790
:100320000D4699469246044600F124080168880665
:1003300004D5E06921F01001216000E00120A8420D
:1003400001DD471B00E00027A1697A1902EB0900D3
:10035000081AA0612078C00602D42046AFF30080BE
:10036000002608E0D4E901211AF806009047206A27
:10037000401C761C20624E45F4DB2078C0060AD56E
:100380002046AFF3008006E0D4E9012130209047F9
:10039000206A401C2062381EA7F10107F4DC07E048
:1003A000D4E9012118F805009047206A401C20621A
:1003B000281EA5F10105F3DC2046AFF3008020786C
:1003C000000602D50220BDE8F0870120FBE700000F
:1003D000074B70B50D467B4400F011F804462846E3
:1003E00000F020F810B14FF0FF3070BD204670BD16
:1003F000EF24000001694A1C02610878704700B5CB
:100400008FB0CDE901310021059105497944CDE94D
:10041000031011466846FFF7E7FE0FB000BD00006D
:10042000E5FFFFFF007B00F080007047754600F09D
:1004300029F8AE4605006946534620F00700854678
:1004400018B020B5FFF7B2FEBDE820404FF000061F
:100450004FF000074FF000084FF0000B21F00701AC
:10046000AC46ACE8C009ACE8C009ACE8C009ACE8EF
:10047000C0098D4670470446AFF300802046FFF761
:1004800081FE0000004870470C1D0020FEE7704709
:1004900072B6FEE730B40B4641780078A138C0EB65
:1004A000001404EB40106FF0A00404EB400008447B
:1004B00081B230BC5143184602F0DEB810B5074C8B
:1004C0000022002104EBC2135854491CC9B28029F0
:1004D000FAD3521CD2B2082AF3D310BD180100205F
:1004E0002DE9FF4F87B09946159E07980027099977
:1004F000804688427EDA089D76E0700706D5079927
:1005000009980144A1EB0800009001E0CDF80080BB
:100510000024A9EB050A63E0300705D5089909EB2B
:100520000100401B021B00E02A191498C05DA04086
:1005300000F0800BF00702D0BBF1000F4CD0B007E9
:1005400004D5BBF1000F41D00020834616F0300FD8
:100550003ED00898101A02F033FB284904908969AC
:10056000029102F059FB069007990098401A02F098
:1005700027FB224903904969019102F04DFB059048
:10058000079802F01DFB059902F09CFA069902F00B
:100590000FFC05900199049802F03EFB0190DDE903
:1005A000021002F039FB0290089802F009FB029950
:1005B00002F088FA019902F085FA02F0E5FA01905A
:1005C000059802F0E1FA0146019A02E00120BCE739
:1005D0000099584600F070F9641CE4B2082C01D26E
:1005E000A24599DC08357F1C4D4586DB08F10100EA
:1005F0007DE7FFE70BB0BDE8F08F00001805002095
:100600002DE9FF4F87B00025203ADDF850709B465A
:1006100002F0FF09BBF1100F08D0062D7CD278073D
:100620000ED5C5F10600C0B200900AE0780704D5E7
:10063000C5F10800C0B2009000E0009500240EE073
:100640000095002405E000BFBBF1100F07D0082C77
:1006500072D2380716D5C4F10800C0B213E03807CB
:1006600003D5C4F11000C0B200E0204605EB09112B
:1006700024F007021144344A565C04F007020121B9
:10068000914008E02046314A09EB490102EB410163
:100690004E5D0121A1400E40F90700D0DEB3B9073D
:1006A00001D5D6B3002617F0300F39D002F0A0FAEA
:1006B000DFF89C800590D8F81810029102F0ACFA8F
:1006C0008246009802F094FA0490D8F81410019130
:1006D00002F0A2FAD8F8001002F0F4F9514602F044
:1006E00067FB03900199059802F096FA82460299F9
:1006F000049802F091FAD8F8041002F0E3F9514698
:1007000002F0E0F902F040FA8046039802F03CFA69
:100710004246014609E00BE013E0FFE70126C2E78D
:1007200008994218079900980144304600F0C4F82F
:10073000641CE4B2102C87D36D1CEDB2082DFFF4BD
:1007400069AF0BB0BDE8F08FDA300008B22E0008B8
:10075000180500202DE9F0478AB0894680461F46DB
:1007600015460024202102A8DDF848A0FFF7ACFDC3
:100770002878A12801D3022600E001260D2817D0F1
:1007800008EBC60080282BDD4FEAE87108EB5170BA
:10079000C1102CA0FFF71CFD09F110094FF0000853
:1007A000B9F1400F1CDB641C3C800AB0BDE8F08747
:1007B0002BA0FFF70DFDA41C38880026A4B2A04290
:1007C00003D280B2401E3880EFE768780A2802D151
:1007D00024A0FFF7FDFC24A0FFF7FAFCAD1C25E0E8
:1007E0002A78A12A15D3202202A92846FFF752FE13
:1007F00002A9CDE9001A09F1100308F110024946D7
:100800004046FFF76DFE6A78297818A0FFF7E0FCF4
:100810000AE0102349464046CDF800A0FFF7F0FE5D
:10082000297816A0FFF7D4FC08EBC608A01984B2FB
:100830003888A04204D8214613A0FFF7C9FCB4E7CA
:10084000354495E70D0AB1BED0D0BDE1CAF82C20E1
:10085000B9B22564B8F6D7D6BDDA0D0A000000009B
:100860005C7200005C6E00000D0A000043484152BB
:100870003A2025642025640D0A00000041534349B5
:10088000493A2025640D0A000D0AB1BEB6CECFD478
:10089000CABEBDE1CAF8A3ACB9B2CFD4CABE256402
:1008A000B8F6D7D6BDDA0D0A00000000014801F005
:1008B000BDBA00001801002030B5012380291CD2E8
:1008C000002A1ADB402A18DAD41702EB5475C5F354
:1008D000C70425F00705521B02E05B061B0E521EE3
:1008E00012F0FF02F9D1054A02EBC414625C9A438C
:1008F0006254002801D01A43625430BD1801002010
:1009000010B590F821100022022905D0042181633E
:1009100080F82020012010BD01680B6823F00E0331
:100920000B6001680B6823F001030B6090F8403006
:10093000C46B012101FA03F3636080F8211080F891
:100940002020104610BD000010B590F821100024A2
:10095000022903D00421816301243DE001680A6873
:1009600022F00E020A6001680A6822F001020A60A1
:100970001A4A0168914201D1012121E0174A14323B
:10098000914201D110211BE0144A2832914201D139
:10099000891515E0114A3C32914201D189140FE0CA
:1009A0000E4A5032914202D14FF4803108E00B4A96
:1009B0006432914202D14FF4801101E04FF0807116
:1009C000064A083A5160012180F82110002180F880
:1009D0002010416B01B18847204610BD080002403D
:1009E00070B5044600F010F90546601C02D00448BA
:1009F0000078044400F008F9401BA042FAD370BD0F
:100A0000040000202DE9F84FDFF8B891002409F127
:100A1000040A0AF1040B23460F270BF1040EC9E068
:100A20000125A5402A40AA427DD1674ED1F804C0D5
:100A3000ACEB0608B44532D014DCBCF1030F3AD05D
:100A400009DCBCF1000F2AD0BCF1010F1CD0BCF1B5
:100A5000020F31D11DE0BCF1110F17D0BCF1120F04
:100A60002AD119E0B8F5881F19D006DCB8F5803F07
:100A700015D0B8F5801F1FD111E0B8F5001F0ED0BA
:100A8000B8F5041F18D10AE0CB6815E0CB681B1D30
:100A900012E0CB6808330FE0CB680C330CE08B68B6
:100AA0002BB1012B4FF0080303D0456104E0042370
:100AB00002E0056100E00023FF2A01D8064601E0BC
:100AC00000F104064FEA840501D9A5F12005D6F806
:100AD000008007FA05FC28EA0C0803FA05F548EA45
:100AE0000508C6F800804D68ED0062D5374DAE6947
:100AF00046F00106AE61AD6924F0030605F001057C
:100B00000095334D06EB050CDCF80850A607360FB0
:100B100007FA06F825EA0805DFF8B880404503D152
:100B20004FF0000817E044E0DFF8AC80404502D108
:100B30004FF001080FE0DFF8A480404502D14FF0EC
:100B4000020808E0DFF89880404502D14FF0030822
:100B500001E04FF0040808FA06F848EA0508CCF866
:100B600008804D68D9F80060ED034D4601D5164365
:100B700000E096432E604D68DAF80060AD035546FC
:100B800001D5164300E096432E604D68DBF8006007
:100B9000ED025D4601D5164300E096432E604D6898
:100BA000DEF80060AD02754601D5164300E09643BD
:100BB0002E60641C0D682A46E5407FF431AFBDE825
:100BC000F88F0000000401400000111000100240E6
:100BD0000000014000080140000C014000100140ED
:100BE000001401408068084000D001207047C268AE
:100BF00021EA02030A4043EA0241016170470AB157
:100C0000016170470904FBE70148806870470000F4
:100C10000400002002488168027811448160704716
:100C200004000020074810B5016841F01001016080
:100C3000032000F079F8002000F006F800F024F816
:100C4000002010BD0020024070B50D4D04464FF449
:100C50007A712878B1FBF0F00A490968B1FBF0F02D
:100C600000F0F1FD48B9102C07D200222146501E99
:100C700000F03AF800206C6070BD012070BD0000EB
:100C800004000020100000200E4808B5816941F0E2
:100C900001018161816901F001010091C16941F0A7
:100CA0008051C161C06900F080500090052000F0C3
:100CB0003BF80548416821F0E06141F00071416076
:100CC00008BD00000010024000000140002809DBC0
:100CD00000F01F02012191404009800000F1E02056
:100CE000C0F8001170470000F0B40E4B1B680C46B2
:100CF000C3F30223C3F10705042D00D90425191DF0
:100D0000072901D2002300E0DB1E012606FA05F1C7
:100D1000491E214099409E40761E16403143F0BC4A
:100D200001F0C0BD0CED00E0064900F007020868C4
:100D30004FF6FF03184040EA0220034A10430860C0
:100D4000704700000CED00E00000FA052DE9F047C7
:100D50000F46050061D0434E306800F00700B842EE
:100D600009D2306820F0070038433060306800F066
:100D70000700B84251D128683B4C810712D5400783
:100D800003D5606840F4E06060602878000703D510
:100D9000606840F4605060606068A96820F0F0000E
:100DA000084360602878C00728D06868012810D000
:100DB0002168022810D0890700292EDA616821F005
:100DC000030101436160FFF71FFF804641F288394C
:100DD0000DE021688903EFE78901EDE7FFF714FFD4
:100DE000A0EB0801494502D90320BDE8F0876068FF
:100DF000696800F00C00B0EB810FEFD1306800F0B3
:100E00000700B8420BD9306820F007003843306043
:100E1000306800F00700B84201D00120E5E72878EB
:100E2000400705D56068E96820F4E0600843606029
:100E30002878000706D56068296920F4605040EAE8
:100E4000C100606000F038F86168084AC1F303111E
:100E5000515CC8400649086006480068FFF7F4FE88
:100E60000020C2E700200240001002409A2E000835
:100E70001000002008000020044805490068496867
:100E8000044AC1F30221515CC840704710000020A1
:100E900000100240AA2E000804480549006849686D
:100EA000044AC1F3C221515CC840704710000020C1
:100EB00000100240AA2E000812A185B00FC98DE8CB
:100EC0000F0014A0144A006804905168134801F000
:100ED0000C03042B10D0082B0ED1C1F38343C9039C
:100EE0001DF803000AD5516804AAC1F34041515CC2
:100EF0000A4A5043B0FBF1F005B070470849484337
:100F0000FAE7000002030405060708090A0B0C0DA6
:100F10000E0F1010010200000010024000127A00B3
:100F200000093D002DE9F84F040070D02078C04D35
:100F3000C00749D06868C0F38100012807D06868FD
:100F4000C0F38100022809D16868C00306D528686B
:100F5000800339D560680028E7D035E06068B0F5D7
:100F6000803F0BD010B1B0F5A02F11D0286820F42D
:100F700080302860286820F4802002E0286840F44F
:100F800080302860606890B1FFF73EFE06460AE0B8
:100F9000286840F480202860F0E700BFFFF734FEA7
:100FA000801B642873D828688003F7D50CE0FFF70E
:100FB0002BFE064605E000BFFFF726FE801B6428D7
:100FC000F0D828688003F7D420789A4E80074FF035
:100FD00001094FF0000839D5686810F00C0F07D0F0
:100FE0006868C0F38100022809D16868C00306D48C
:100FF0002868800714D52069012808D110E02069ED
:10100000B0B1C6F80090FFF7FFFD074605E00AE122
:10101000FFF7FAFDC01B0228C4D828688007F7D55F
:101020002868616920F0F80040EAC10028600DE0FE
:10103000C6F80080FFF7E8FD074604E0FFF7E4FD8F
:10104000C01B022823D828688007F7D4207800071F
:101050002CD57948A169D9B1C0F80090FFF7D4FD2B
:10106000074604E0FFF7D0FDC01B02280FD8686ACE
:101070008007F7D571484FF4FA510068B0FBF1F0E2
:10108000009000BF0098411E0091FAD20EE080E06F
:10109000C0F80080FFF7B8FD074604E0FFF7B4FD95
:1010A000C01B022875D8686A8007F7D420784007EB
:1010B00060D5E8690027C00008D4E86940F0805096
:1010C000E861E869012700F0805000905C48016801
:1010D000C90513D40168834641F480710160FFF7AC
:1010E00093FD824606E000BFFFF78EFDA0EB0A00ED
:1010F00064284ED8DBF80000C005F5D5E06801286B
:101100000AD008B1052813D0286A20F0010028620F
:10111000286A20F0040002E0286A40F001002862FA
:10112000E06841F2883B98B1FFF76EFD82460BE024
:10113000286A40F004002862EEE700BFFFF764FD74
:10114000A0EB0A0159455AD8286A8007F6D50CE069
:10115000FFF75AFD824605E0FFF756FDA0EB0A01B6
:1011600059454CD8286A8007F6D41FB1E86920F0A9
:101170008050E861E06988B36968C1F381010229A0
:1011800044D00228C6F8608004D0FFF73DFD044635
:1011900038E034E0FFF738FD074604E0FFF734FDA0
:1011A000C01B02282BD828688001F7D4206AB0F52C
:1011B000803F05D16868A16820F40030084368606A
:1011C000D4E908010843696821F474110843686090
:1011D000C6F86090FFF718FD044606E025E000BF62
:1011E000FFF712FD001B022809D828688001F7D5F7
:1011F0001BE000BFFFF708FD001B022802D90320F7
:10120000BDE8F88F28688001F4D40EE00128F7D0FB
:101210006868226A00F48031914204D1616A00F466
:101220007010884201D00120EAE70020E8E70000C2
:1012300000100240000042428004424210000020A0
:101240000070004070B5040009D0606A002540B10C
:1012500025616561A56294F8510040B10CE0012060
:1012600070BD6068B0F5827FF4D0E561F2E784F884
:101270005050204600F040F8022084F851002068C9
:10128000016821F040010160A088218900F482708A
:1012900001F404410843A18901F400610843217C61
:1012A00001F002010843217D01F001010843218B77
:1012B00001F400710843217F01F03801084394F8DC
:1012C000201001F080010843218D01F400510843F2
:1012D00021680860A069042101EA10402168486083
:1012E0002068C16921F40061C1616565012084F84D
:1012F0005100002070BD000030B585B0002400947E
:10130000019402940394224D03682248022103228F
:10131000AB421FD1836943F480538361836903F433
:1013200080530493836943F00403836180691A4DF9
:1013300000F004000490A020CDE90001039269466A
:101340002846FFF75FFB4020CDE9000469462846A8
:10135000029419E0114CA34218D1C36943F48043AD
:10136000C361C36903F480430493836943F00803B2
:1013700083618069039200F0080004904FF42040DC
:10138000CDE9000169460648FFF73CFB05B030BDDA
:1013900000300140001002400008014000380040C9
:1013A000000C01402DE9F84F04464068002598469E
:1013B00016460F464FF0040BB0F5827F01D1A068AE
:1013C00088B194F85000012818D0012084F850000A
:1013D000FFF71AFC814694F851004FF0000A0128EB
:1013E0000ED0022582E084F851B013460A4620460A
:1013F000CDF8008000F036F9BDE8F88F0220FBE759
:10140000002F72D0002E70D084F851B0C4F854A0D0
:10141000A763A687E687C4F830A0A4F834A0A4F890
:1014200036A0C4F840A0C4F844A0A068B0F5004FAE
:1014300009D12068016821F040010160206801683D
:1014400021F48041016020680168490603D40168E5
:1014500041F040010160E068D8B139E0206881685E
:10146000C90709D0007BA16B0870A06B401CA0636A
:10147000E08F401EE0870CE0FFF7C6FBA0EB090100
:10148000414503D3B8F1FF3F03D036E0B8F1000F78
:1014900033D0E08F0028E1D11DE020688168C907C2
:1014A00009D0C068A16B0880A06B801CA063E08F8E
:1014B000401EE0870CE0FFF7A7FBA0EB09014145C8
:1014C00003D3B8F1FF3F03D017E0B8F1000F14D0F9
:1014D000E08F0028E1D14A464146204600F0CCFD8D
:1014E00008B120206065606D00B10125012084F8FD
:1014F000510084F850A028467EE70325F6E72DE941
:10150000F84F044690F8500000271D4616468946BD
:1015100001280DD04FF0010B84F850B0FFF774FB99
:10152000804694F85100BA46012804D0022793E07F
:101530000220BDE8F88FB9F1000F73D0002E71D0F2
:10154000032084F85100C4F854A0C4F83090A68653
:10155000E686C4F838A0A4F83CA0A4F83EA0C4F8DD
:1015600044A0C4F840A0A068B0F5004F09D120689D
:10157000016821F0400101602068016841F4804168
:10158000016020680168490603D4016841F0400108
:101590000160E068B0F5006F606803D030B3012EE1
:1015A00024D041E008B1012E1CD1206B21680088B5
:1015B000C86006E020688168890709D5216B098821
:1015C000C160206B801C2063E08E401EE08609E035
:1015D000FFF71AFBA0EB0800A84202D3681C01D059
:1015E00031E07DB3E08E0028E4D120E0206B21685B
:1015F0000078087306E020688168890709D5216BA7
:1016000009780173206B401C2063E08E401EE08649
:101610000AE0FFF7F9FAA0EB0800A84203D3681C20
:1016200002D010E017E06DB1E08E0028E3D1424611
:101630002946204600F04EFD08B120206065A068D4
:1016400018B106E0FFE7032706E02068C16880685C
:101650000090606D00B1012784F851B084F850A06B
:10166000384666E72DE9F84F044690F85000002709
:101670000A9E1D4692468B464FF0010901280ED066
:10168000012084F85000FFF7BFFA804694F851001B
:10169000616801280CD0B1F5827F07D102E00220F9
:1016A000BDE8F88FA16809B9042801D00227C2E07B
:1016B000BBF1000F27D0BAF1000F24D01DB394F86E
:1016C0005100042802D0052084F8510000206065F4
:1016D000C4F838A0E587A587C4F830B0E586A586AC
:1016E0002064606420680168490603D4016841F001
:1016F00040010160E068B0F5006F606805D0E8B3B4
:10170000012D46D07FE0012795E008B1012D39D1A8
:10171000206B21680088C860206B801C2063E08EED
:10172000401EE0862EE02068816889070FD5E18E93
:1017300069B1B9F1010F0AD1216B0988C160206B31
:10174000801C2063E08E401EE0864FF00009206878
:101750008168C9070CD0E18F51B1C068A16B0880C6
:10176000A06B801CA063E08F401EE0874FF0010952
:10177000FFF74AFAA0EB0800B04200E009E001D30D
:10178000701C50D1E08E0028CDD1E08F0028CAD146
:101790003FE0206B216800780873206B401C2063B9
:1017A000E08E401EE0862EE02068816889070FD514
:1017B000E18E69B1B9F1010F0AD1216B097801738A
:1017C000206B401C2063E08E401EE0864FF0000935
:1017D00020688168C9070CD0E18F51B1C068A16B46
:1017E0000870A06B401CA063E08F401EE0874FF0A4
:1017F0000109FFF709FAA0EB0800B04202D3701C00
:1018000001D010E07EB1E08E0028CDD1E08F00281D
:10181000CAD142463146204600F05CFC28B101277F
:101820002020606507E0032705E0A06818B920685C
:10183000C16880680090012084F85100002084F87D
:10184000500038462CE710B5401EB0F1807F01D320
:10185000012010BD4FF0E02460610F21601701F0FE
:1018600021F80020A06107202061002010BD7047F2
:1018700070470000F8B5026804461068D1685369E3
:1018800010F00F0F4FF0000554D003F0010601F4E3
:10189000907737435FD0C20705D0CA0503D5226CC5
:1018A00042F001022264420705D5DA0703D0226C18
:1018B00042F002022264820705D5DA0703D0226CC7
:1018C00042F004022264020707D501F020023243ED
:1018D00003D0226C42F008022264226C002A35D028
:1018E000800604D5880602D5204600F08CFD2068CD
:1018F0004069216CC0F3801001F0080101432046CB
:1019000025D000F068FD2068416949061BD5416972
:1019100021F040014161A06BA8B158494163A06B1F
:10192000FFF712F8002811D0A06B416B01B0BDE8A1
:10193000F040084783060ED58B060CD52046BDE83F
:10194000F84000F060BD2046FFF792FFF8BDFFF7BA
:101950008FFF2564F8BD266B2023012E52D1C606C9
:1019600050D5CE064ED5106850680090506940069C
:101970002AD5A16B086840680004000CEAD0A68D47
:101980008642E7D9E0858869202818D0D06820F4FD
:101990008070D0602068416921F0010141612068B8
:1019A000416921F04001416184F83E30256320689F
:1019B000C16821F01001C160A06BFEF7A1FFA08DEE
:1019C000E18D401A81B219E0A08DE18D401A81B2FB
:1019D000E08D0028BED00029BCD0D06820F49070E3
:1019E000D0602068426922F00102426184F83E30F2
:1019F00025632068C26822F01002C2602046FFF70B
:101A000036FFF8BD05062BD50D0629D594F83D0007
:101A10002128F6D1A068B0F5805F01D12069B0B16E
:101A2000206A411C2162216800784860E08C401ED9
:101A30000004000CE084E4D12068C16821F080013A
:101A4000C1602068C16841F04001C160F8BD206AF2
:101A50000088C0F308005060206A801C2062E5E71F
:101A60004006F3D54806F1D5D168204621F0400163
:101A7000D16084F83D3000F022F9F8BDC72300089A
:101A800070B5040004D094F83D00002510B106E0C4
:101A9000012070BD84F83C50204600F023F824203B
:101AA00084F83D002068C16821F40051C1602046DF
:101AB00000F004FD2068016921F490410161206873
:101AC000416921F02A0141612068C16841F4005157
:101AD000C1602564202084F83D0084F83E00002089
:101AE00070BD000030B585B00024009401940294CC
:101AF00003940068184988422CD11848816941F440
:101B000080418161816901F480410491816941F0E2
:101B1000040181618069124D00F0040004904FF4CB
:101B2000007000900220019003200390694628462F
:101B3000FEF768FF2815CDE900046946284602949F
:101B4000FEF760FF002201212520FFF7CDF82520B8
:101B5000FFF7BCF805B030BD00380140001002406E
:101B60000008014090F83E30202B0ED159B152B1FF
:101B700090F83C30012B08D0012380F83C30002342
:101B8000036300F0F7BC012070470220704700009B
:101B90001C4830B4024690F8D4171278002311B1D3
:101BA000012908D017E0232A15D1012180F8D41784
:101BB000A0F8D2370FE0134C611CB4F8D247242AA6
:101BC0001AD06254B0F8D227A2F5E064CE3C09D016
:101BD000521CA0F8D227037030BC012209490A48E0
:101BE000FFF7C0BF032480F8D4475354B0F8D2178E
:101BF000491CA0F8D217EEE7022280F8D4276354DC
:101C0000F4E7000034050020D40000202DE9F8435B
:101C1000044690F83D001F4616460D4620284CD13C
:101C2000C5B1BEB194F83C00012846D0012084F82B
:101C30003C004FF00008C4F84080212084F83D00AB
:101C4000FEF7E2FFA6848146E684A068B0F5805FD7
:101C500003D004E00120BDE8F883206928B12E46B6
:101C60005FF0000584F83C800EE00026FAE7802152
:101C7000204600F09AFCA0B9AEB116F8010B21681D
:101C80004860E08C401EE084E08C4B464FF0000240
:101C900000970028EBD14FF04001204600F085FC72
:101CA00030B10320D7E735F8020BC0F30800E6E7B0
:101CB000202084F83D000020CDE70220CBE77047CC
:101CC000FEE70000F0B50022154901230A2715465A
:101CD0004A710C1F18420AD0A65C761CF6B2A654B4
:101CE0000A2E05D34E791E444E71A75400E0A55428
:101CF0005B06521C1B0ED2B2042AEBD3CB784A7877
:101D00000C7913438A780870224303EA00048C702C
:101D10008343CB7002EA00030B7182434A70F0BD2B
:101D20001800002070B50F4D002401212846FEF751
:101D300059FF00B9012402212846FEF753FF00B9DC
:101D4000A41C04212846FEF74DFF00B9241D0821DC
:101D50002846FEF747FF00B908342046FFF7B2FFD8
:101D6000204670BD0008014070B5274C4FF4006557
:101D7000002229462046FEF742FF6420FEF730FE8F
:101D8000012229462046FEF73AFF6420FEF728FE8E
:101D9000012202212046FEF732FFA5140022294627
:101DA0002046FEF72CFF2C2000F06CF82E2000F0CF
:101DB00069F82F2000F066F8F82000F063F80020A2
:101DC00000F060F8242000F05DF8812000F05AF85F
:101DD000202000F057F8A22000F054F8C82000F0AE
:101DE00051F8A02000F04EF8A62000F04BF840205B
:101DF00000F048F8AF2000F045F829462046BDE83D
:101E000070400122FEF7FBBE000C014010B5B0305F
:101E10000C46C0B200F036F8102000F033F804F0A1
:101E20000F00BDE8104000F02DB800002DE9F04192
:101E3000124E054600244FF4805822464146304653
:101E4000FEF7DDFE371500212046FFF7DFFF0122F8
:101E500039463046FEF7D3FE6423802229460848DF
:101E6000FFF74DFB641CE4B28035082CEBD34146F0
:101E70003046BDE8F0410122FEF7C1BE000C014032
:101E80007C00002038B5044600208DF80000024692
:101E90004FF480610548FEF7B2FE8DF800406423E0
:101EA000012269460248FFF72AFB38BD000C0140B9
:101EB0007C0000202DE9F04385B000242F480094D9
:101EC000019402940394816941F010018161816958
:101ED00001F010010491816941F00401816181697F
:101EE00001F004010491816941F008018161806978
:101EF000012200F00800224F55030490294638467D
:101F0000FEF77DFEDFF87C80012210214046FEF7BF
:101F100076FEDFF87490002240F203414846FEF757
:101F20006EFE01224FF4C0514846FEF768FE009550
:101F3000022601250396CDE9015469463846FEF78D
:101F400061FD0F208DE8310069464046FEF75AFDDD
:101F50001020CDE90005CDE9024669464046FEF76E
:101F600051FD41F60340CDE90005CDE90246694641
:101F70004846FEF747FD05B0BDE8F083001002407B
:101F80000010014000080140000C0140104810B54D
:101F90000E4901604FF48271416000218160C1608F
:101FA0004FF400720161C0E905120822C0E907215F
:101FB000416281620A21C162FFF744F9002803D01F
:101FC000BDE81040FEF764BA10BD000000300140CB
:101FD00024000020104810B50E4901604FF48271B2
:101FE00041604FF4004181600021C1604FF40072F4
:101FF0000161C0E90512C1610162416281620A2189
:10200000C162FFF71FF9002803D0BDE81040FEF7BA
:102010003FBA10BD003800407C0000200C4810B5CD
:102020000A4901604FF4E1314160002181600C22D6
:10203000C160C0E904128161C161FFF721FD002880
:1020400003D0BDE81040FEF723BA10BD00380140B0
:10205000D4000020FEE7FEE770470000044800219E
:102060000122017080F8D41701460248FFF77ABDBB
:1020700034050020D4000020F8B5044640684FF431
:102080008273984217D1A0684FF48065B0F5004F75
:1020900001D0A8420FD12068066826F040060660ED
:1020A0006068984207D1A068A84204D100920B460C
:1020B0000022012103E000920B46002280212046ED
:1020C00000F018F8002804D0606D40F02000606532
:1020D0000320F8BD38B50B4600920446002280214B
:1020E00000F008F8002804D0606D40F02000606522
:1020F000032038BD2DE9F8431E4691468846044624
:10210000089DFEF781FD401B351AFEF77DFD074651
:1021100025480068C0F3CB30684338E0701C37D0E6
:10212000FEF772FDC01BA84203D215B1009860B340
:102130002CE02068416821F0E00141606068B0F562
:10214000827F0BD1A068B0F5004F02D0B0F5806F50
:1021500004D12068016821F040010160A06AB0F557
:10216000005F09D12068016821F4005101602068F6
:10217000016841F400510160012084F85100002001
:1021800084F850000320BDE8F8830025401E00902D
:102190002068816838EA010004D000214945BDD19A
:1021A0000020F0E70121F9E7100000207047FEF75A
:1021B00031BD30B58FB028216846FEF785F814216F
:1021C0000AA8FEF781F8022501200490009510204E
:1021D000059000244FF46010CDE90840079568464B
:1021E000FEF7A0FE08B172B6FEE70F20CDE90A05A2
:1021F0004FF48060CDE90C4002210AA80E94FEF74E
:10220000A5FD002801D072B6FEE70FB030BD7047C3
:102210002DE9F0410B4E90460C4607464FF4005511
:10222000002229463046FEF7EAFC2246414638465F
:1022300000F022FA29463046BDE8F0410122FEF7BF
:10224000DEBC0000001001402DE9F0471D4D914615
:1022500080460E460A46002469881BA0FDF7B8FF99
:1022600007E000BF18F804101DA0FDF7B1FF641CC3
:10227000A4B2B442F6D31C4F4FF4005400222146BE
:102280003846FEF7BCFC32464946404600F050FA5C
:10229000012221463846FEF7B2FC698813A0FDF7FB
:1022A00097FF6420FEF79CFB21463846FEF79FFC13
:1022B000002221463846FEF7A2FC6888401C688050
:1022C000BDE8F0871E000020B1A3B4E6B5DA2564AE
:1022D000B6CE2564B8F6CAFDBEDD2E2E2E0D0A0040
:1022E00025640D0A0000000000100140B5DA2564E5
:1022F000B6CECAFDBEDDB1A3B4E6CDEAB3C92E0D9C
:102300000A00000070B500230C881D46012A02D087
:1023100023003CD02EE09C4216D0C25CA12A06D3FA
:102320009B1CAD1C9BB2EDB29C42F4D20AE0C2B140
:102330000D2A03F1010303D06D1C9BB2EDB2EAE755
:102340009C4202D1641E0C8070BD9BB2C25C0A2A02
:10235000E1D12A0912015B1C1032D5B29BB2402D8B
:10236000D9D30B8070BD93B1402D03D3E21A521E16
:102370000A800CE0C21812F8012CA12A09D3012B03
:1023800003D09B1E9BB2AD1C0BE0641E0C80184456
:1023900070BDC65C002EE9D00A2A04D05B1E9BB239
:1023A0006D1CEDB2DFE7012BEFD05B1E9BB2C218B4
:1023B00012F8012C0D2AD6D15B1E2A091201103207
:1023C0009BB2D5B2CFE710B5406A0021C185C18468
:1023D000FFF74EFA10BD0168CA6822F49072CA6015
:1023E00001684A6922F001024A61016B012904D1A6
:1023F0000168CA6822F01002CA60202180F83E10ED
:1024000000210163704708B590F83E10222901D0E1
:10241000022008BD82684FF480539A4201D10169BD
:1024200021B1816A9A421BD04AB10AE00268816AEE
:102430005268C2F308020A80816A891C08E00269B6
:1024400072B10268526802F07F020A70816A491C08
:102450008162C18D491E0904090CC18503D019E0B0
:1024600002685268F1E70168CA6822F02002CA6077
:102470000168CA6822F48072CA6001684A6922F061
:1024800001024A61202180F83E10016B012903D02E
:10249000FFF77EFB002008BD002101630168CA68C8
:1024A00022F01002CA6001680A68D20602D50A68E2
:1024B00049680091818DFFF7DAF9EBE770B50446C2
:1024C00000680169E26821F440511143016121690A
:1024D000A0680843616908432168CA6841F20C6337
:1024E0009A430243CA6020684169A26921F440719D
:1024F000114341611E492068884202D1FEF7CCFC9D
:1025000001E0FEF7B9FC00EBC00101EB00126068CE
:1025100064218000B2FBF0F3B3FBF1F36FF0180617
:102520007343B2FBF0F5B2FBF0F605EB8305322303
:1025300003EB0515B5FBF1F5B6FBF1F605F0F0057B
:1025400005EB0615B2FBF0F6B2FBF0F0B0FBF1F0D4
:102550006FF01802504306EB800003EB0010B0FB55
:10256000F1F0216800F00F002844886070BD000081
:102570000038014081628285C285002101642222E7
:1025800080F83E2080F83C100168CA6842F48072EE
:10259000CA6001684A6942F001024A610068C16884
:1025A00041F02001C160002070472DE9F0419846BC
:1025B00017460E460446069D1DE0681C1BD02DB133
:1025C000FEF722FBA0EB0800A84214D92068C168DE
:1025D00021F4D071C1602068416921F0010141619D
:1025E000202084F83D0084F83E00002084F83C0060
:1025F0000320BDE8F0812068006836EA000004D0BE
:102600000020B842D9D00020F3E70120F9E700000C
:102610000148FFF72FB90000D4000020FEE70000BA
:1026200038B512A1000309680091010C8DF8011062
:10263000010A8DF802108DF8030000F0C7F800F0D1
:102640006FF80B4C002210212046FEF7D8FA6423C5
:10265000042269460748FEF752FF01221021204656
:10266000FEF7CDFA00F05CF838BD00002000000055
:102670000008014024000020F8B5044612A0134EC3
:1026800000680090080C8DF80100080A8DF802001F
:1026900015468DF80310002210213046FEF7AFFAE0
:1026A0006423042269460A48FEF729FF4FF4FA73AF
:1026B0002A4621460648FEF775FE012210213046C3
:1026C000FEF79DFAF8BD000003000000000801407D
:1026D0002400002038B500200F4C8DF80000024681
:1026E00010212046FEF78BFA05208DF800006423A8
:1026F000012269460948FEF702FF64230122694668
:102700000648FEF74FFE012210212046FEF777FA19
:102710009DF8000038BD00000008014024000020A2
:102720002DE91040FFF7D6FFC007FBD110BD000018
:102730002DE9F05FC1F30B060F0BC6F580548846F8
:1027400082461546A24200D81446DFF87C90390331
:102750008B464FF480521C48FFF78EFF002006E0A6
:10276000321819F80210FF2903D1401C80B2A04290
:10277000F6D3A04222D23846FFF752FF00204A4645
:1027800006E000BF1AF800108319401CD15480B233
:10279000A042F7D359464FF480520B4800F030F86E
:1027A000A5420FD0281BA244A044002685B24FF4B6
:1027B00080547F1CA542CAD82C46C8E72246414611
:1027C0005046EBE7BDE8F09F0A0D002038B5062023
:1027D000094C8DF80000002210212046FEF70FFA68
:1027E0006423012269460548FEF789FE0122102173
:1027F0002046FEF704FA38BD0008014024000020FE
:102800002DE9F0410746C8B2C0F580740E46154662
:10281000A24200D814464FF480782246314638460A
:1028200000F00EF8A54208D0281B2744264485B2A4
:102830004446A542F1D82C46EFE7BDE8F081000000
:10284000F8B5044614A0154600680090080C8DF8F1
:102850000100080A8DF802008DF80310FFF7B6FF9B
:102860000E4E002210213046FEF7C9F964230422DF
:1028700069460B48FEF743FE4FF4FA732A46214699
:102880000748FEF73CFE012210213046FEF7B7F95B
:10289000FFF746FFF8BD00000200000000080140FD
:1028A000240000200907090E002804DB00F1E020C5
:1028B00080F80014704700F00F0000F1E02080F86D
:1028C000141D70477047000038B504468DF80000AD
:1028D0000223012269460248FFF798F9204638BDD5
:1028E000D400002098B000273C463D46B946ADF8DC
:1028F00008700126FEF796F9FFF75BFCFFF7DAFA9E
:10290000FFF744FBFFF766FBFFF788FBDFF854B1E6
:1029100000220121D8465846FEF771F90022022113
:102920004046FEF76CF94FF47A70FEF759F8DFF87D
:1029300038A14FF40058002241465046FEF75FF997
:102940004FF4FA70FEF74CF8012241465046FEF76C
:1029500056F904214548FEF745F920B901221146F0
:102960005846FEF74CF9FFF7FFF9FFF777FBDFF862
:102970000081D3464FF400515846FEF738F995BB15
:102980000020FDF79BFD0125012E39D0403C402160
:10299000ADF8081004F5802204A8FFF739FC324690
:1029A00002A904A8FFF7AEFC8246BDF8081031A0CA
:1029B000FDF70EFC002102AB52460846CDF8009010
:1029C000FDF7C8FEBDF808102DA0FDF701FC012E93
:1029D00003D0BDF80800241A4034FDF767FF4FF418
:1029E000FA70FDF7FDFFFFF79DF901280CD0FFF706
:1029F00099F908280AD0FFF795F9022809D00BE0C9
:102A0000BDF808000444C2E7012600E000260025C6
:102A100002E00CB10025641E98F8D417022902D0F8
:102A2000032916D01AE0B8F8D20707F58022401E15
:102A300081B208F10100FFF707FC88F8D497B8F8D5
:102A4000D2177F1E0F443A4610A0491EFDF7C0FB67
:102A500004E018A0FDF7BCFB88F8D4976420FDF7CC
:102A6000BFFF87E7000C0140001001400008014053
:102A7000340500204C454E3A2025640D0A00000024
:102A80004C454E323A2025640D0A0000B1BEB4CE4A
:102A9000B1A3B4E62564D7D6BDDACAFDBEDD2C20CD
:102AA000B9B2D2D1D0B4C8EB2564D7D6BDDA0D0AFD
:102AB0000000000052454345495645204F564552B7
:102AC000210D0A0090EA010F48BF81F0004100F19A
:102AD0007681421A3CBF801A89184FEAD0524FF0D3
:102AE0007F4C1CEA410FA2EBD15318BF9CEA026F46
:102AF00000F03B804FF0004C4CEA00204CEA0121F2
:102B000021FA03FC10EB0C0C1ED202F1FF325FEA3B
:102B10001C2040EBC25038BF70471CF07F0F4FEABB
:102B2000400C18BFBCF17F4F38BF7047C3F1200382
:102B3000994008BF20F00100BCF17F4F38BF7047BB
:102B4000A0F1C04000F02FB94FEA3C00000A40EB72
:102B5000C25028BF1CF0FF0F4FEA400CE6D018BF50
:102B6000BCF17F4F38BF7047EAE79CEA026F05D09F
:102B700010EA5C0F08BF00F00040704710B500F08D
:102B8000CCF800BF64FBBE3E41000B0ED3F19E02A9
:102B900008D950F400034FEA032323FA02F048BF98
:102BA0004042704710B500F0B8F800BF4992248049
:102BB000002070476FF0004282EA2000704700005A
:102BC00010F0004148BF4042B0FA80F310FA03F21F
:102BD000C3F19D030BD051EAC35101EB1220530600
:102BE00038BF704700F1010008BF20F001007047B6
:102BF000B0FA80F310FA03F2C3F19D030AD0D905AD
:102C000001EB1220530638BF704700F1010008BFE6
:102C100020F00100704700004FF47F0C1CEAD01236
:102C20001EBF1CEAD11392EA0C0F93EA0C0F00F0BE
:102C3000478090EA010F48BF42F480724FF0004C89
:102C40004CEA00204CEA012102EB0302A0FB011335
:102C5000A2F50002002918BF43F001035B0028BF62
:102C60004FEA330342EB22425FEA132C4CEBC25093
:102C70002EBFBCEB436FB2F57C0F70474FEA036C7D
:102C8000BCF1004F08BF20F00100B2F57C0F38BF47
:102C900070470BD582F0FF0212F5803FC8BF704726
:102CA00000F1C040D8BF00F00040704700F5000CB4
:102CB0005FEA4C0C48BF7047B0F1C04000F073B8F9
:102CC00090EA010F0CEAD11348BF42F480726245CA
:102CD00038BF634504D280EA010000F0004070472D
:102CE00010B500F01AF800BF8900013E00F007B8E7
:102CF00000F009B85FEA410C5FEA1C6C08D080EA7A
:102D0000010000F050B85FEA400C5FEA1C6CF6D19D
:102D10004FF00040A0F5800070470EF1020E2EF03B
:102D2000030E5EF8044B244204D44FEA4102B2F190
:102D30007F4F11D84FEA4003B3F17F4F0CD80ED12B
:102D40004FEAD07CB2F17F4F0CEB4C0C0CF1020C33
:102D500008BF4CEBD17C04E04FF0080C01E04FEAD7
:102D6000D17C0CEB4C0324FA03F404F00704B4F117
:102D7000040C06D20EEB840CBDE810404CF0010CA4
:102D80006047DFE80CF0070802024FF00040A0F5B2
:102D9000800010BD0846420018BFD2F1807288BF83
:102DA00000F0004010BDFF2141EAD050C00570473F
:102DB00090EA010F48BF81F000413FF58AAE421A08
:102DC00004D882F00042A0EB020011444FEAD05236
:102DD0004FF07F4C1CEA410FA2EBD15318BF9CEA85
:102DE000026F4AD04FF0004C4CEA00204CEA01211F
:102DF00021FA03FCB0EB0C0C0FD412F0FE0F36D00E
:102E00005FEA4C001DD5001240EBC25038BF70473E
:102E10001CF03F0F18BF70470BE0A2F101025FEA00
:102E20001C2040EBC25038BF70471CF07F0F18BF0A
:102E30007047C3F12003994014BF401E20F00100E9
:102E4000704780084FEA122308BF7047B0FA80FC31
:102E5000A2EB0C02CCF1280C60FA0CF093EA122FD2
:102E600004BF00EBC25070474FEAC3707047130AAB
:102E70005FEADC1008BF7047F6E79CEA026F04D0F7
:102E800010EA5C0F08BF0020704710B5FFF745FF40
:102E900040DFF63E81F00040704700000000000077
:102EA00000000102030406070809000000000102F7
:102EB00003040000000000000000002F00000000DC
:102EC0000700070000147F147F1400242A7F2A12B1
:102ED00000626408132300364955225000000503A0
:102EE000000000001C224100000041221C000014D0
:102EF000083E08140008083E0808000000A0600012
:102F000000080808080800006060000000201008A1
:102F10000402003E5149453E0000427F400000420D
:102F200061514946002141454B31001814127F1070
:102F3000002745454539003C4A494930000171099F
:102F4000050300364949493600064949291E000053
:102F500036360000000056360000000814224100FA
:102F6000001414141414000041221408000201512A
:102F7000090600324959513E007C1211127C007F33
:102F800049494936003E41414122007F4141221CCE
:102F9000007F49494941007F09090901003E414933
:102FA000497A007F0808087F0000417F4100002027
:102FB00040413F01007F08142241007F40404040D3
:102FC000007F020C027F007F0408107F003E414119
:102FD000413E007F09090906003E4151215E007F04
:102FE000091929460046494949310001017F01017B
:102FF000003F4040403F001F2040201F003F40381E
:10300000403F00631408146300070870080700615C
:103010005149454300007F41410000552A552A553A
:10302000000041417F0000040201020400404040D2
:103030004040000001020400002054545478007FF6
:103040004844443800384444442000384444487FCD
:1030500000385454541800087E0901020018A4A432
:10306000A47C007F080404780000447D40000040F8
:1030700080847D00007F102844000000417F4000D4
:10308000007C04180478007C080404780038444468
:10309000443800FC242424180018242418FC007C44
:1030A0000804040800485454542000043F444020BD
:1030B000003C4040207C001C2040201C003C403054
:1030C000403C004428102844001CA0A0A07C0044E0
:1030D00064544C4414141414141400000000000030
:1030E00000000000000000000000000000F80000E8
:1030F0000000000000333000000000100C06100C2F
:103100000600000000000000000040C07840C078C9
:103110004000043F04043F040400007088FC0830B1
:103120000000001820FF211E0000F008F000E01849
:10313000000000211C031E211E0000F00888700002
:1031400000001E2123241927211010160E00000054
:1031500000000000000000000000000000E0180473
:103160000200000000071820400000020418E000E0
:1031700000000040201807000000404080F0804020
:1031800040000202010F01020200000000F00000F6
:1031900000000101011F010101000000000000000A
:1031A000000080B07000000000000000000000007F
:1031B0000000000101010101010100000000000008
:1031C00000000030300000000000000000008060BF
:1031D0001804006018060100000000E01008081044
:1031E000E000000F102020100F00001010F8000069
:1031F00000000020203F2020000000700808088800
:1032000070000030282422213000003008888848CF
:1032100030000018202020110E000000C02010F8FF
:10322000000000070424243F240000F808888808D0
:1032300008000019212020110E0000E010888818D5
:103240000000000F112020110E0000380808C838B7
:1032500008000000003F0000000000708808088897
:103260007000001C222121221C0000E01008081020
:10327000E0000000312222110F00000000C0C00059
:10328000000000000030300000000000008000005E
:10329000000000008060000000000000804020105E
:1032A0000800000102040810200040404040404057
:1032B00040000404040404040400000810204080BA
:1032C00000000020100804020100007048080808EF
:1032D000F0000000003036010000C030C828E810BF
:1032E000E0000718272423140B000000C038E0007A
:1032F0000000203C23020227382008F888888870C4
:103300000000203F202020110E00C03008080808CF
:103310003800071820202010080008F808080810B6
:10332000E000203F202020100F0008F88888E808DF
:103330001000203F20202320180008F88888E80883
:103340001000203F200003000000C03008080838AB
:10335000000007182020221E020008F808000008BC
:10336000F808203F210101213F20000808F8080843
:1033700000000020203F2020000000000808F8087E
:103380000800C08080807F00000008F888C02818EE
:103390000800203F20012638200008F8080000001F
:1033A0000000203F20202020300008F8F800F8F826
:1033B0000800203F003F003F200008F830C0000810
:1033C000F808203F200007183F00E0100808081008
:1033D000E0000F10202020100F0008F8080808084F
:1033E000F000203F210101010000E0100808081052
:1033F000E0000F18242438504F0008F88888888887
:103400007000203F2000030C30200070880808085E
:1034100038000038202121221C00180808F808086C
:1034200018000000203F2000000008F808000008F5
:10343000F808001F202020201F000878880000C8FE
:103440003808000007380E010000F80800F80008EE
:10345000F800033C0700073C0300081868808068F8
:10346000180820302C03032C30200838C800C83836
:1034700008000000203F2000000010080808C8389D
:1034800008002038262120201800000000FE02023B
:1034900002000000007F40404000000C30C00000EF
:1034A0000000000000010638C00000020202FE0019
:1034B0000000004040407F000000000004020202C3
:1034C00004000000000000000000000000000000F8
:1034D00000008080808080808080000202040000E4
:1034E00000000000000000000000000080808080DC
:1034F00000000019242222223F2008F800808000CA
:103500000000003F112020110E000000008080808C
:103510000000000E11202020110000000080808893
:10352000F800000E112020103F20000080808080D5
:103530000000001F222222221300008080F08888D1
:1035400088180020203F202000000000808080801C
:103550008000006B94949493600008F80080808051
:103560000000203F210000203F20008098980000AC
:1035700000000020203F20200000000000809898DC
:10358000000000C08080807F000008F8000080807C
:103590008000203F24022D302000000808F80000A1
:1035A00000000020203F202000008080808080805C
:1035B0008000203F20003F20003F808000808080EE
:1035C0000000203F210000203F20000080808080FC
:1035D0000000001F202020201F008080008080002D
:1035E000000080FFA12020110E00000000808080DC
:1035F0008000000E112020A0FF808080800080804D
:10360000800020203F212000010000008080808079
:1036100080000033242424241900008080E080806E
:1036200000000000001F20200000808000000080BB
:103630008000001F202020103F208080800000801C
:10364000808000010E30080601008080008000802C
:1036500080800F300C030C300F00008080008080D1
:1036600080000020312E0E312000808080000080FC
:10367000808080818E7018060100008080808080AC
:1036800080000021302C2221300000000000807CCE
:10369000020200000000003F404000000000FF0068
:1036A000000000000000FF0000000002027C80001B
:1036B00000000040403F000000000006010102023F
:1036C000040400000000000000000000EC360008C8
:1036D0000000002024000000280100081037000826
:1036E000240000204C2300004401000800000000DA
:1036F0000100000010000000000000000024F400A1
:1037000000000000000000000000000000000000B9
:04000005080000ED02
:00000001FF
